:020000020000FC
:040000000C94080054
:10000C000C941C000FEF0DBF08E00EBF0FEF05B9ED
:10001C000FEF07B90AB910E00E942F0001E000931E
:10002C00680003E000936B007894FFCF0F932F933D
:10003C0023B121FF08D020FF09D00E942F00189572
:10004C002F910F91189513951F7008951A951F7085
:10005C000895F1E0E0E0E10F049118B90BB90895AF
:10020000770041003B006B004D006E007E00430014
:100210007F004F005F007C00360079003E001E002A
:00000001FF
