:020000020000FC
:0200000004C139
:02000C0040C1F1
:0200400032C1CB
:10020000E721CB6B2D6EEE23EF2F0FEF0DBF08E034
:100210000EBFE0E0F2E054915BB903E005B90CE0F9
:1002200004B90FEF0AB90FEF0AB900E800936100B3
:1002300008E00093610001E00093680003E0009390
:100240006B0005E005BD0EE906BD01E000936E0000
:1002500078941127222733270E9431010E943C0104
:10026000FBCFE0E0F2E0022FE00F1124F11D5491EA
:100270005BB92A9A2B980895E0E0F2E0032FE00F93
:100280001124F11D54915BB92A982B9A08950F936C
:100290000FB70F931899139519991A9518B90F91CB
:1002A0000FBF0F9118950F930FB70F9323952A3017
:1002B00048F020E033953A3028F030E00F910FBF3E
:0C02C0000F9118950F910FBF0F9118952A
:00000001FF
