:020000020000FC
:040000000C9422003A
:04000C000C947F00D1
:100040000C9488000FEF0DBF08E00EBF0FEF05B94D
:100050000FEF07B90AB900E008B90BB901E0009346
:10006000680003E000936B0000E80093610004E087
:10007000009361000E944200789418B90E944A00DF
:100080003BB9FBCF05E005BD0EE906BD01E00093DD
:100090006E000895332737E7203071F131E42130C5
:1000A00059F13BE3223041F13BE6233029F13DE4B5
:1000B000243011F13EE62530F9F03EE72630E1F03C
:1000C00033E42730C9F03FE72830B1F03FE429306E
:1000D00099F03FE52A3081F03CE72B3069F036E3B8
:1000E0002C3051F039E72D3039F03EE32E3021F03D
:1000F0003EE12F3009F0089508950E944A000F93C1
:1001000003B101FF139500FF1A951F700E94920022
:100110000FB70F9303B101FF239500FF2A952F70AE
:0A0120000E9492000F910FBF189586
:00000001FF
