:020000020000FC
:0200000004C139
:02000C0024C10D
:0200400016C1E7
:10020000E721CB6B2D6EEE23EF2F0FEF0DBF08E034
:100210000EBFE0E0F2E054915BB903E005B90FEFE7
:100220000AB90FEF0AB900E80093610008E00093F3
:10023000610001E00093680003E000936B0005E0BB
:1002400005BD0EE906BD01E000936E00789411270C
:1002500022273327FFCF0F930FB70F9318991395CA
:1002600019991A9518B90F910FBF0F9118950F93FF
:100270000FB70F9300C023952A3010F020E000C084
:10028000E0E0F2E0022FE00F1124F11D54915BB980
:080290000F910FBF0F911895AB
:00000001FF
