:020000020000FC
:0200000004C139
:02000C0033C1FE
:0200400025C1D8
:10020000E721CB6B2D6EEE23EF2F0FEF0DBF08E034
:100210000EBFE0E0F2E054915BB903E005B90CE0F9
:1002200004B90FEF07B90FEF0AB901E000936800B6
:1002300003E000936B0005E005BD02EB06BD01E0A5
:1002400000936E0078941127222733276627FFCF6B
:10025000E0E0F2E0022FE00F1124F11D54915BB9B0
:100260000895E0E0F2E0032FE00F1124F11D549116
:100270005BB908950F930FB70F93189913951999B8
:100280001A9518B90F910FBF0F9118950F930FB7CB
:100290000F9302EB06BD6395683C50F060E0239538
:1002A0002A3030F020E03395363010F030E000C0D6
:1002B0002A9B01C005C02A9A2B980E94280104C0DD
:1002C0002A982B9A0E9431010F910FBF0F91189518
:00000001FF
