:020000020000FC
:0200000004C139
:02000C0019C118
:1002000077413B6B4D6E7E437F4F0FEF0DBF08E094
:100210000EBF1127E0E0F2E024912BB903E005B90D
:100220000FEF0AB900E80093610008E00093610055
:1002300001E00093680003E000936B007894FFCF27
:100240000F930FB70F93189906C0199909C00F9112
:100250000FBF0F91189513951A3030F010E004C0BD
:100260001A9512F419E000C0E0E0F2E0012FE00F6F
:100270001124F11D24912BB90F910FBF0F911895E7
:00000001FF
